:020000040800F2
:10000000381100201D020008310B000811070008FC
:10001000690A0008E90500085715000800000000FB
:10002000000000000000000000000000DD0F0008DC
:10003000ED05000800000000A50E0008F110000802
:1000400037020008370200083702000837020008AC
:10005000370200083702000837020008370200089C
:10006000370200083702000837020008370200088C
:10007000370200083702000837020008370200087C
:10008000370200083702000837020008370200086C
:10009000370200083702000837020008370200085C
:1000A000370200083702000837020008370200084C
:1000B00037020008651100083702000837020008FF
:1000C000370200083702000837020008370200082C
:1000D0003702000829130008370200083702000819
:1000E000370200083702000837020008370200080C
:1000F00037020008370200083702000837020008FC
:1001000037020008370200083702000837020008EB
:1001100037020008370200083702000837020008DB
:1001200037020008370200083702000837020008CB
:1001300000F002F800F062F80AA090E8000C824497
:100140008344AAF10107DA4501D100F057F8AFF274
:10015000090EBAE80F0013F0010F18BFFB1A43F0A5
:100160000103184734220000542200000A444FF0D3
:10017000000C10F8013B13F0070408BF10F8014B06
:100180001D1108BF10F8015B641E05D010F8016B4B
:10019000641E01F8016BF9D113F0080F1EBF10F8AF
:1001A000014BAD1C0C1B09D16D1E58BF01F801CBD2
:1001B000FAD505E014F8016B01F8016B6D1EF9D555
:1001C0009142D6D37047000000230024002500266A
:1001D000103A28BF78C1FBD8520728BF30C148BFAA
:1001E0000B607047642900F0A580732900F06F81CF
:1001F000002070471FB51FBD10B510BD00F0C2F93B
:100200001146FFF7F7FF01F035FA00F0E0F903B40B
:10021000FFF7F2FF03BC01F0AEF900000948804788
:1002200009480047FEE7FEE7FEE7FEE7FEE7FEE7D8
:10023000FEE7FEE7FEE7FEE704480549054A064BF0
:1002400070470000F510000831010008380B00204D
:1002500038110020380D0020380D002070470000B4
:100260000FB4044910B503AA029800F035F910BC88
:100270005DF814FB2C0000202DE9F0410E460446E9
:10028000002020622046E168884730B3252805D049
:10029000D4E901219047206A401CF2E7E16820463A
:1002A00000278847050018D0A5F14100192802D879
:1002B00020354FF400673246294620462760FFF775
:1002C00091FF40B1012804D0F61D26F0070608363C
:1002D000D8E7361DD6E72846DAE7206ABDE8F08180
:1002E00070B50C460546012A05D02878800600D551
:1002F000EA69002302E0012305E05B1C934202D27D
:10030000E05C0028F9D1A869E618C01AA861286A3B
:10031000184428622846AFF3008004E0D5E90121A3
:1003200014F8010B9047B442F8D32846AFF300808D
:1003300070BD00002DE9F0410646002410687529C3
:10034000314616A510D0AFF30080002802DA4042F3
:1003500013A507E031688A0701D512A502E0490715
:1003600004D511A5012401E0AFF3008000210A2289
:1003700006F1240709E0B0FBF2FCB0FBF2F302FB4C
:100380001C00303078541846491C0028F3D123460D
:100390002A463046BDE8F04100F02EB800000000CB
:1003A0002D0000002B000000200000004FF0000294
:1003B0000429C0F0128010F0030C00F0A180CCF1F1
:1003C000040CBCF1020F18BF00F8012BA8BF20F8E5
:1003D000022BA1EB0C0100F093B85FEAC17C24BFB3
:1003E00000F8012B00F8012B48BF00F8012B7047E3
:1003F00070477047704770472DE9F0470D469946A2
:100400009246044600F124080168880604D5E06994
:1004100021F01001216000E00120A84201DD471B0E
:1004200000E00027A1697A1902EB0900081AA0610F
:100430002078C00602D42046AFF30080002608E0F2
:10044000D4E901211AF806009047206A401C761C66
:1004500020624E45F4DB2078C0060AD52046AFF373
:10046000008006E0D4E9012130209047206A401C3A
:100470002062381EA7F10107F4DC07E0D4E901216E
:1004800018F805009047206A401C2062281EA5F13C
:100490000105F3DC2046AFF300802078000602D58A
:1004A0000220BDE8F0870120FBE710B5436913B1D6
:1004B000AFF3008001E0FFF713FF012010BD1278B9
:1004C00000F124010A7000224A700122EDE7116850
:1004D0004FF0FF32E9E70000074B70B50D467B4453
:1004E00000F039F80446284600F048F810B14FF003
:1004F000FF3070BD204670BD771100004FF0000244
:1005000000B5134694469646203922BFA0E80C5009
:10051000A0E80C50B1F12001BFF4F7AF090728BFE4
:10052000A0E80C5048BF0CC05DF804EB890028BF60
:1005300040F8042B08BF704748BF20F8022B11F089
:10054000804F18BF00F8012B7047000001694A1C5A
:1005500002610878704700B58FB0CDE90131002104
:10056000059105497944CDE9031011466846FFF726
:1005700083FE0FB000BD0000E5FFFFFF007B00F031
:1005800080007047754600F02BF8AE4605006946BE
:10059000534620F00700854618B020B5FFF74CFE03
:1005A000BDE820404FF000064FF000074FF0000874
:1005B0004FF0000B21F00701AC46ACE8C009ACE8F5
:1005C000C009ACE8C009ACE8C0098D46704710B559
:1005D0000446AFF300802046BDE81040FFF717BE89
:1005E00000487047D40A002000BFFEE770472DE99D
:1005F000F0410246002500260020002300240027A9
:1006000091F803C00CF00F0591F803C00CF0100C2A
:10061000BCF1000F03D091F802C04CEA050591F837
:1006200000C0BCF1000F31D0146800202BE04FF067
:10063000010C0CFA00F3B1F800C00CEA03069E426C
:1006400020D183004FF00F0C0CFA03F7BC4305FADE
:1006500003FC4CEA040491F803C0BCF1280F06D156
:100660004FF0010C0CFA00FCC2F814C00AE091F83B
:1006700003C0BCF1480F05D14FF0010C0CFA00FC8F
:10068000C2F810C0401C0828D1D31460B1F800C0D3
:10069000BCF1FF0F34DD546800202EE000F1080C9F
:1006A0004FF0010808FA0CF3B1F800C00CEA030699
:1006B0009E4221D183004FF00F0C0CFA03F7BC438C
:1006C00005FA03FC4CEA040491F803C0BCF1280FBE
:1006D00005D100F1080C08FA0CF8C2F8148091F862
:1006E00003C0BCF1480F07D100F1080C4FF001081E
:1006F00008FA0CF8C2F81080401C0828CED35460C9
:10070000BDE8F0814161704701617047C160704789
:1007100000BFFEE770B5024600240025002300203C
:10072000958A138B1B0445EA030626F07F4404EAEE
:1007300001068E4201D1012000E0002070BD21B1F0
:10074000028842F00102028004E002884FF6FE7344
:100750001A4002807047000000B585B001214805AD
:1007600000F0A2FB0121082000F0BEFBC020ADF884
:10077000000003208DF802001C208DF8030069465C
:100780001148FFF734FF114800F024F80020ADF8BD
:1007900008004BF6FF70ADF80A003020ADF80C00F1
:1007A0004FF48060ADF80E000001ADF8100008486D
:1007B000019001210548FFF7C2FF01A9034800F09D
:1007C0005BF805B000BD0000000C01400054004083
:1007D000801A060010B504460B48844209D1012155
:1007E000480500F071FB00214FF4001000F06CFB95
:1007F00008E00121880500F067FB00214FF480002C
:1008000000F062FB10BD00000054004021B10288DE
:1008100042F48072028004E002884FF6FF631A40BF
:100820000280704721B1028842F40072028004E025
:1008300002884FF6FF531A40028070470CB50246FB
:10084000002000230193009300920B0F019321F0ED
:100850007F41019B1BB1009B1433009303E0090C03
:10086000009B18330093009B1B680B400BB10120C9
:1008700000E000200CBD00002DE9F04385B00446E7
:100880000D460026B1460427DFF8CC80A6884FF637
:10089000C0700640684600F037FBDDF808802F483E
:1008A000B8FBF0F01FFA80F946EA0906A680208816
:1008B0004FF6FE71084020800026294928688842AA
:1008C0000CD828684000B8FBF0F087B2042F00DA9B
:1008D00004273E4309F10100208427E0E8884BF615
:1008E000FF71884206D1286800EB4000B8FBF0F0A9
:1008F00087B209E0286800EBC00101EB0010B8FBEB
:10090000F0F087B247F48047C7F30B0008B947F00F
:10091000010747F4004006434FF4967009FB00F0CE
:100920004FF47A7190FBF1F0401C2084A68320885C
:1009300040F00100208026884FF6F5300640A88858
:100940006989084306432680A889298908432081AC
:1009500005B0BDE8F083000000127A0040420F00AD
:10096000A086010012B141F0010102E04FF6FE73D2
:1009700019400182704701827047000070B504463B
:100980000D4600BF4FF400311C48FFF757FF002809
:10099000F8D101211948FFF739FF00BF184917485E
:1009A000FFF7B8FE0028F9D0002278211348FFF79E
:1009B000D9FF00BF13491148FFF7ACFE0028F9D05A
:1009C00021460E48FFF7D7FF00BF0E49891C0B4890
:1009D000FFF7A0FE0028F8D029460848FFF7CBFF14
:1009E00000BF0849891C0548FFF794FE0028F8D08D
:1009F00001210248FFF716FF70BD000000540040BF
:100A0000010003008200070008B50121082000F062
:100A10006BFA0121402000F067FA10208DF80300E6
:100A20002020ADF8000003208DF8020069460C4834
:100A3000FFF7DDFD20210A48FFF766FE10208DF844
:100A400003002020ADF8000003208DF80200694665
:100A50000448FFF7CCFD20210248FFF755FE08BDF2
:100A6000000C01400018014000BFFEE708B501215D
:100A7000402000F039FA0F20ADF8000010208DF86A
:100A8000030003208DF8020069460448FFF7AFFD1C
:100A90000F210248FFF736FE08BD00000018014094
:100AA00010B500210148FFF731FE10BD00180140CC
:100AB0002DE9F04107460D46002610E000240AE02B
:100AC000094830F814100948FFF720FE384600F0B6
:100AD00077FD601C84B2042CF2DB701C86B2AE423F
:100AE000ECDBBDE8F0810000DA04002000180140D2
:100AF0002DE9F04107460D46002610E000240AE0EB
:100B0000094830F814100948FFF700FE384600F095
:100B100057FD601C84B2042CF2DB701C86B2AE421E
:100B2000ECDBBDE8F0810000D20400200018014099
:100B30007047000070B5002100230F22C47804B371
:100B4000154C246804F4E064C4F5E064210AC1F1A2
:100B50000403CA40447804FA03F184781440214322
:100B600009010E4C0678A155047804F01F050124F4
:100B7000AC4005786D11AD0005F1E025C5F80041E8
:100B800009E0047804F01F050124AC40044D067808
:100B9000761145F8264070BD0CED00E000E400E061
:100BA00080E100E010B5002000F03BF810BD2DE919
:100BB000F05F06460F4690461C46DDF828A04FF031
:100BC000000BE11704EB5171C910A4EBC10131B95D
:100BD0002046E11704EB5171C1F3C70506E020463A
:100BE000E11704EB5171C910491CCDB23D4614E028
:100BF0002946304600F0A1F8B1460AE059460BF10B
:100C0000010B1AF8010000F0AFFC09F1010000F03F
:100C1000FF09C145F2DB681CC5B2A542E8DBBDE8AF
:100C2000F09F70B50646002415E004F1B001C8B28B
:100C300000F093FC002000F090FC102000F08DFCF0
:100C4000002504E0304600F08FFC681CC5B2802D02
:100C5000F8DB601CC4B2082CE7DB70BD10B5642063
:100C600000F0AEFCAE2000F078FC202000F075FC17
:100C7000102000F072FCB02000F06FFCC82000F0E3
:100C80006CFC002000F069FC102000F066FC4020A5
:100C900000F063FC812000F060FCFF2000F05DFCB0
:100CA000A12000F05AFCA62000F057FCA82000F07C
:100CB00054FC3F2000F051FCA42000F04EFCD32057
:100CC00000F04BFC002000F048FCD52000F045FC73
:100CD000F02000F042FCD92000F03FFC222000F080
:100CE0003CFCDA2000F039FC122000F036FCDB205E
:100CF00000F033FC202000F030FC8D2000F02DFCB3
:100D0000142000F02AFCAF2000F027FC10BD10B525
:100D10008D2000F022FC102000F01FFCAE2000F01F
:100D20001CFC10BD10B58D2000F017FC142000F045
:100D300014FCAF2000F011FC10BD70B504460D4648
:100D400005F1B001C8B200F008FC102141EA14100E
:100D500000F003FC04F00F0141F0010000F0FDFB86
:100D600070BD00002DE9F04180460E461746002474
:100D70007D0131464046FFF7E0FF00BF06E00D4928
:100D8000485D00F0F1FB6D1C601CC4B2102CF6DB5A
:100D9000701CC1B24046FFF7D0FF002406E00549B1
:100DA000485D00F0E1FB6D1C601CC4B2102CF6DB4A
:100DB000BDE8F081320000202DE9F0470646894663
:100DC00017469A464FF0000800240025BAF1010F9B
:100DD00003D0BAF1020F5ED125E020E0785D203823
:100DE00000F0FF087E2E04DD002609F1010000F06E
:100DF000FF0949463046FFF7A0FF002409E008EB51
:100E00004801264A02EB4101085D00F0ADFB601C81
:100E1000C4B2062CF3DBB01DC6B2681CC5B2785D47
:100E20000028DBD137E032E0785D203800F0FF08A1
:100E3000782E04DD002609F1010000F0FF09494683
:100E40003046FFF77AFF002407E004EB0811144A4C
:100E5000505C00F089FB601CC4B2082CF5DB09F182
:100E60000100C1B23046FFF768FF002408E004EB40
:100E7000081108310A4A505C00F076FB601CC4B2CD
:100E8000082CF4DB06F10800C6B2681CC5B2785D18
:100E90000028C9D100BF00BFBDE8F0878019000855
:100EA000A81B00087047000029B1064AD269024316
:100EB000044BDA6104E0034AD2698243014BDA61F0
:100EC000704700000010024029B1064A126902432F
:100ED000044B1A6104E0034A12698243014B1A6110
:100EE000704700000010024029B1064A926902438F
:100EF000044B9A6104E0034A92698243014B9A6170
:100F0000704700000010024030B50021002200248C
:100F100000232D4D6D6805F00C0121B1042905D089
:100F2000082923D105E0294D056022E0274D056001
:100F30001FE0254D6D6805F47012234D6D6805F4B2
:100F40008034022505EB92421CB9214D55430560C2
:100F50000BE01D4D6D6805F400351DB11C4D55436A
:100F6000056002E0194D5543056002E0174D05602C
:100F700000BF00BF144D6D6805F0F0010909154D63
:100F80006B5C0568DD4045600F4D6D6805F4E06100
:100F9000090A104D6B5C4568DD4085600A4D6D683F
:100FA00005F46051C90A0B4D6B5C4568DD40C560B6
:100FB000054D6D6805F44041890B074D6B5CC568B4
:100FC000B5FBF3F5056130BD0010024000127A0058
:100FD00000093D001400002024000020704710B5D7
:100FE00000F002F810BD00000CB500200190009048
:100FF0003348006840F480303149086000BF304811
:10100000006800F4003000900198401C01900098A6
:1010100018B90198B0F5A06FF1D12948006800F423
:10102000003010B10120009001E0002000900098F5
:10103000012843D12348006840F01000214908608E
:101040000846006820F0030008600846006840F089
:10105000020008601A48406819494860084640681C
:1010600048600846406840F4806048600846406830
:1010700020F47C1048600846406840F4E81048605E
:101080000846006840F08070086000BF0C480068A7
:1010900000F000700028F9D00948406820F00300F3
:1010A000074948600846406840F00200486000BFB9
:1010B0000348406800F00C000828F9D10CBD00007E
:1010C0000010024000200240042808D14FF0E02127
:1010D000096941F004014FF0E022116107E04FF08F
:1010E000E021096921F004014FF0E022116170470D
:1010F0007047000010B51348006840F00100114926
:10110000086008464068104908400E494860084693
:1011100000680E4908400B4908600846006820F442
:10112000802008600846406820F4FE0048604FF4C4
:101130001F008860FFF753FF4FF00060044908600C
:1011400010BD0000001002400000FFF8FFFFF6FE97
:1011500008ED00E010B540F2CF21632000F038F830
:1011600010BD000010B50121174800F070F80028EC
:1011700028D00121144800F05BF8012013490860D1
:10118000087408464068401E486008464068C8B970
:101190000A20486008468068401E88600120487424
:1011A0000846806870B90A2088600846C068401EFA
:1011B000C860012088740846C06818B90A20C86051
:1011C0000120C87410BD000000040040E4040020A9
:1011D0007FB505460C4601210220FFF765FEADF8FC
:1011E0000850ADF804400020ADF80A00ADF8060044
:1011F00001A90E4800F046F8012211460B4800F004
:1012000037F81D208DF8000000208DF80100032024
:101210008DF8020001208DF803006846FFF78AFC74
:101220000121024800F007F87FBD000000040040E3
:10123000CA430282704721B1028842F00102028053
:1012400004E002884FF6FE731A400280704730B502
:101250000246002000230024158A05EA010395892F
:1012600005EA010413B10CB1012000E0002030BDFB
:101270001AB183890B43838102E083898B43838185
:1012800070470000002202881D4B98420ED01D4B73
:1012900098420BD0B0F1804F08D01B4B984205D03C
:1012A0001A4B984202D01A4B984204D14FF68F73D2
:1012B0001A404B881A43174B984207D0164B984256
:1012C00004D04FF6FF431A40CB881A4302808B8824
:1012D00083850B8803850A4B98420BD0094B9842B3
:1012E00008D00E4B984205D00D4B984202D00D4BC2
:1012F000984201D10B7A0386012383827047000054
:10130000002C01400034014000040040000800406F
:10131000000C00400010004000140040004001405C
:10132000004401400048014010B540F225512048DA
:1013300000F050F828B31E4800F008F9C4B21D4868
:10134000008800F40040E0B91A48008800F48040AA
:1013500078B10A2C06D01748008820F4804015493F
:10136000088023E01348008840F4004011490880B9
:101370001CE00D2C06D10F48008840F480400D4938
:10138000088013E00B480088C0F30D000A490C5494
:1013900008480088401C074908800846008840F239
:1013A000DB51884202DD00200249088010BD0000A8
:1013B0000038014030000020F804002021B182896B
:1013C00042F40052828104E082894DF6FF731A4094
:1013D0008281704770B5024600240023002500205A
:1013E00040F66A16B14200D100BFC1F3421501F0C8
:1013F0001F03012606FA03F3012D02D1968933401B
:1014000006E0022D02D1168A334001E0968A33406D
:101410000C12012606FA04F41688344013B10CB1FC
:10142000012000E0002070BDF0B503460024002636
:101430000025002040F66A17B94200D100BF1846C7
:10144000C1F3421401F01F06012707FA06F5012C2B
:1014500001D10C3004E0022C01D1103000E0143036
:101460001AB107682F43076002E00768AF430760BF
:10147000F0BD00002DE9F04786B005460E46002479
:10148000A24600BFA1460027B08900B100BF2F4689
:101490002C8A4CF6FF700440F08804432C82AC89FF
:1014A0004EF6F3100440B08831890843718908432F
:1014B0000443AC81AC8A4FF6FF400440B08904433A
:1014C000AC8201A8FFF720FD1F48874202D1DDF85A
:1014D00010A001E0DDF80CA0A88900F4004040B1A4
:1014E0000AEBCA0000EB0A1031684900B0FBF1F8C2
:1014F00007E00AEBCA0000EB0A1031688900B0FB74
:10150000F1F86420B8FBF0F004012009642101FB2C
:101510001089A88900F4004040B1322000EBC900D6
:10152000B0FBF1F000F00700044308E0322000EBCC
:1015300009106421B0FBF1F000F00F0004432C818E
:1015400006B0BDE8F08700000038014001468888F9
:10155000C0F30800704700BFFEE710B504462146FF
:101560000020FFF70BFA10BD10B5044621464020BD
:10157000FFF704FA10BD014600BF704710B56FF0C9
:101580000400FFF7A1FD0A4800680A49B0FBF1F02A
:10159000094908700846007800EB4001C1EBC01013
:1015A0004FF6FF7101EAC0000449088010BD000039
:1015B0000000002000127A00280000202A000020ED
:1015C0000146114A12884A434FF0E0235A61002233
:1015D0009A611A46126942F001021A6100BF4FF087
:1015E000E022106900F001021AB100F48032002AF2
:1015F000F5D04FF0E022126922F001024FF0E02313
:101600001A6100229A6170472A0000200146114A9F
:1016100012784A434FF0E0235A6100229A611A4639
:10162000126942F001021A6100BF4FF0E022106916
:1016300000F001021AB100F48032002AF5D04FF018
:10164000E022126922F001024FF0E0231A61002229
:101650009A6170472800002000BF054A128802F0F6
:101660004002002AF9D0C2B2014B1B1D1A807047FC
:101670000038014008B500240026FFF7C5F9FFF740
:101680007DFFFFF769F8FFF7E9FAFFF7EFF94FF48D
:10169000E13000F025F9FFF75DFDFF20FFF7C1FA0B
:1016A0000220FFF7B3FF0020FFF7BBFA0220FFF78D
:1016B000ADFF00BF08E0E2B2162101EB0411C8B291
:1016C0000021FFF74FFB641C052CF4DB0220FFF721
:1016D0009DFF01235CA203210020FFF76DFBA720E3
:1016E000FFF73BFF01235DA204210020FFF764FB0D
:1016F000A620FFF732FF01235BA205210020FFF7A0
:101700005BFB0220FFF782FFFFF74CFAFFF7FFFABF
:101710000220FFF77BFFFFF705FB56480823402216
:10172000002100900846FFF742FA0220FFF76EFF03
:1017300051A254A156A0FEF793FD83E05948007CC6
:10174000012802D10020574908745648407C0128DE
:1017500002D10020534948745248807C01286AD144
:101760000020504988745048008800F40040002848
:1017700048D0FFF717FA4C480088C0F30D052946FA
:101780004AA0FEF76DFDB5F5167F08DA4848082334
:101790004022002100900846FFF709FA07E044487C
:1017A00008238022002100900846FFF700FA4048F5
:1017B00000784C2804D052280BD0532818D111E0BF
:1017C0003CA0FEF74DFD4FF480710520FFF790F926
:1017D0000FE03BA0FEF744FD4FF480710520FFF7BA
:1017E00067F906E039A0FEF73BFDFFF759F900E085
:1017F00000BF00BF00202C49088040F2DC512C487B
:10180000FEF7D4FD0A2E15DA052E08DA202132481B
:10181000FEF77AFF20213148FEF774FF07E0202110
:101820002D48FEF76FFF20212C48FEF76DFF701C3E
:10183000C6B200E000261B48C07C012802D100206F
:101840001849C8747AE7000048656C546563204104
:1018500075746F6D6174696F6E00000048656C6C23
:101860006F2054656368000048656C6C6F20546598
:10187000737400009821000831393A33303A31341A
:1018800000000000466562203132203230323000E4
:101890007379737974656D206F6B0A25732C2573CA
:1018A00000000000E4040020300000202564000057
:1018B000F80400200D0AB7B4D7AA0D0A00000000F2
:1018C0000D0AD5FDD7AA0D0A000000000D0AD4DDCF
:1018D000CDA30D0A00000000000C014000180140DB
:1018E00010B586B00446012144F20400FFF7FCFA6B
:1018F0004FF40070ADF8140003208DF81600182086
:101900008DF8170005A91C48FEF771FE4FF48060A2
:10191000ADF8140004208DF8170005A91648FEF74D
:1019200066FE25208DF8000003208DF801008DF85B
:10193000020001208DF803006846FFF7FBF80194D0
:101940000020ADF80800ADF80A00ADF80C00ADF8C5
:1019500010000C20ADF80E0001A90848FFF78AFD21
:10196000012240F225510548FFF75EFD01210348A1
:10197000FFF724FD06B010BD00080140003801400B
:101980000000000000000000002F00000000070021
:10199000070000147F147F1400242A7F2A1200629B
:1019A0006408132300364955225000000503000047
:1019B00000001C224100000041221C000014083ECF
:1019C00008140008083E0808000000A06000000895
:1019D00008080808000060600000002010080402E9
:1019E000003E5149453E0000427F400000426151A7
:1019F0004946002141454B31001814127F10002741
:101A000045454539003C4A49493000017109050303
:101A100000364949493600064949291E0000363634
:101A20000000000056360000000814224100001497
:101A30001414141400004122140800020151090674
:101A400000324959513E007C1211127C007F4949F5
:101A50004936003E41414122007F4141221C007F26
:101A600049494941007F09090901003E4149497A34
:101A7000007F0808087F0000417F410000204041AE
:101A80003F01007F08142241007F40404040007F1A
:101A9000020C027F007F0408107F003E4141413E5E
:101AA000007F09090906003E4151215E007F0919A6
:101AB00029460046494949310001017F0101003FA3
:101AC0004040403F001F2040201F003F4038403F23
:101AD0000063140814630007087008070061514987
:101AE000454300007F41410000552A552A5500001A
:101AF00041417F0000040201020400404040404098
:101B0000000001020400002054545478007F48442F
:101B1000443800384444442000384444487F003866
:101B20005454541800087E0901020018A4A4A47C8F
:101B3000007F080404780000447D40000040808459
:101B40007D00007F102844000000417F4000007CA1
:101B500004180478007C08040478003844444438AD
:101B600000FC242424180018242418FC007C0804F9
:101B7000040800485454542000043F444020003CD2
:101B80004040207C001C2040201C003C4030403C59
:101B9000004428102844001CA0A0A07C00446454E9
:101BA0004C4414141414141400000000000000002D
:101BB0000000000000000000000000F8000000002D
:101BC000000000333000000000100C06100C06006E
:101BD000000000000000000040C07840C0784000D5
:101BE000043F04043F040400007088FC0830000037
:101BF000001820FF211E0000F008F000E01800008F
:101C000000211C031E211E0000F008887000000047
:101C10001E2123241927211010160E000000000099
:101C20000000000000000000000000E018040200B6
:101C3000000000071820400000020418E000000027
:101C40000040201807000000404080F08040400025
:101C50000202010F01020200000000F0000000007B
:101C60000101011F0101010000000000000000004F
:101C700080B07000000000000000000000000000C4
:101C8000000101010101010100000000000000004D
:101C900000303000000000000000000080601804E8
:101CA000006018060100000000E010080810E000C5
:101CB000000F102020100F00001010F8000000008E
:101CC0000020203F202000000070080808887000D5
:101CD0000030282422213000003008888848300055
:101CE0000018202020110E000000C02010F8000075
:101CF00000070424243F240000F80888880808000E
:101D00000019212020110E0000E010888818000022
:101D1000000F112020110E0000380808C8380800F4
:101D20000000003F00000000007088080888700074
:101D3000001C222121221C0000E010080810E000F5
:101D40000000312222110F00000000C0C00000007E
:101D500000000030300000000000008000000000A3
:101D6000000080600000000000008040201008009B
:101D70000001020408102000404040404040400064
:101D8000040404040404040000081020408000003F
:101D90000020100804020100007048080808F00044
:101DA0000000003036010000C030C828E810E00014
:101DB0000718272423140B000000C038E00000009F
:101DC000203C23020227382008F888888870000009
:101DD000203F202020110E00C030080808083800DD
:101DE000071820202010080008F808080810E00054
:101DF000203F202020100F0008F88888E8081000F5
:101E0000203F20202320180008F88888E8081000C8
:101E1000203F200003000000C03008080838000000
:101E200007182020221E020008F808000008F80801
:101E3000203F210101213F20000808F80808000088
:101E40000020203F2020000000000808F8080800BB
:101E5000C08080807F00000008F888C02818080033
:101E6000203F20012638200008F80800000000006C
:101E7000203F20202020300008F8F800F8F8080063
:101E8000203F003F003F200008F830C00008F8085D
:101E9000203F200007183F00E01008080810E0006D
:101EA0000F10202020100F0008F808080808F00084
:101EB000203F210101010000E01008080810E000A7
:101EC0000F18242438504F0008F88888888870003C
:101ED000203F2000030C30200070880808083800DC
:101EE0000038202121221C00180808F808081800D2
:101EF0000000203F2000000008F808000008F80853
:101F0000001F202020201F000878880000C8380803
:101F1000000007380E010000F80800F80008F8007B
:101F2000033C0700073C0300081868808068180815
:101F300020302C03032C30200838C800C838080093
:101F40000000203F2000000010080808C8380800E2
:101F50002038262120201800000000FE0202020086
:101F60000000007F40404000000C30C00000000036
:101F7000000000010638C00000020202FE0000005E
:101F8000004040407F000000000004020202040004
:101F90000000000000000000000000000000000041
:101FA0008080808080808080000202040000000029
:101FB0000000000000000000000080808080000021
:101FC0000019242222223F2008F80080800000000F
:101FD000003F112020110E000000008080800000D2
:101FE000000E112020201100000000808088F800E1
:101FF000000E112020103F20000080808080000013
:10200000001F222222221300008080F08888881876
:102010000020203F20200000000080808080800081
:10202000006B94949493600008F800808080000016
:10203000203F210000203F200080989800000000F1
:102040000020203F20200000000000809898000021
:1020500000C08080807F000008F800008080800041
:10206000203F24022D302000000808F80000000066
:102070000020203F20200000808080808080800021
:10208000203F20003F20003F8080008080800000B3
:10209000203F210000203F20000080808080000041
:1020A000001F202020201F00808000808000000072
:1020B00080FFA12020110E000000008080808000A1
:1020C000000E112020A0FF80808080008080800092
:1020D00020203F21200001000000808080808000BF
:1020E0000033242424241900008080E08080000034
:1020F0000000001F20200000808000000080800081
:10210000001F202020103F208080800000808080E1
:1021100000010E3008060100808000800080808071
:102120000F300C030C300F00008080008080800096
:102130000020312E0E3120008080800000808080C1
:1021400080818E7018060100008080808080800071
:102150000021302C2221300000000000807C02028F
:1021600000000000003F404000000000FF000000B1
:1021700000000000FF0000000002027C8000000060
:102180000040403F0000000000060101020204047C
:10219000000000000000000000000000000000003F
:1021A00000E0203010101010101010103030E080BF
:1021B0000000000000000000000000000080F000AF
:1021C000000000000000000000000000000000000F
:1021D00000000000000000000000000000000000FF
:1021E00000FF0000000000000000000000000003ED
:1021F000060C18101010FCFC1010180C0603000040
:10220000000000000000000000000080C060A0A0EE
:10221000E0C000000000000000000000000000001E
:1022200000FF0000000000000000FC060301313147
:10223000313131313131313131313131313131318E
:10224000010306FC000000000000989F1C1F0F0FF8
:102250000703000000000000000000000000000074
:1022600000FF0000000000000000FF606060606090
:10227000606060C0C0C0808000000000808080C0BE
:10228000C060F0FFE00000C0F0101F1F10F0C000A1
:10229000000000000000000000000000000000003E
:1022A00000FF0000000000000000FFB6B6B6B6B6A2
:1022B00030300000000001010101010101010100B5
:1022C0000000377F3300007F7F40C0C0407F7F0029
:1022D00000000000000000000000000000000000FE
:1022E00000FF00000000000000001F79CD9D1D1DB3
:1022F0001C1C0000000000000000000000000000A6
:1023000080E07F3F030000000000FFFF00000000AE
:1023100000000000000000000000000000000000BD
:10232000000F000000000000000000000001030298
:10233000060E3E2666263E06061E7EC606060303DB
:10234000010000000000000080C07F0F00000000BE
:10235000000000000000000000000000000000007D
:10236000000000000000000000000000000000006D
:102370000000000000000000000000010302020055
:10238000040C00000404060301000000000000002B
:102390000000000000000000B8230008000000203A
:1023A000F80400006C0100088C250008F8040020E7
:1023B000400C0000C80100081184A24A0468090109
:1023C000020304060708090C6910B5020406082078
:1023D0000F0202FAFAAAAAFFFFAAAAFAFA02021048
:1023E0000F4272723A7A424B5B5262621377661006
:1023F00016203C1CFFFFB0B424243F3FE4E4242417
:1024000020020203FFFF300B01051D59C1FF7F01B0
:102410000101500CF8F8484C4F4B4A4848F8F84C2A
:10242000FFFF44011929112C2024243810092430DD
:1024300010FFFF10F0F01010081C1F0B0C0D4F6E5A
:10244000341C0F23607F3F180880C060F8FF07022C
:10245000353DE0703C1C99200D7F7F0406033F7FD3
:102460004040407878100A03050911FF118905C31F
:1024700012E012F0496221073D4428FF11AA44707E
:102480000B830138448292927401831E7C44C701FD
:102490007D01990519C1419A01028139FB013C690D
:1024A000419949FA0101A12A4001212A6D01212AFD
:1024B0006001791501642ADB010915072ADA012177
:1024C0002AD801212AC0010915072A800101352ACD
:1024D00006010918071CE66620076A86157A861C1D
:1024E0002A8601180A80808686068686C0C00C0E61
:1024F0001C0606D030764D2907013113601C12FEF0
:102500001301021009C41820029E63B20E1DFF8140
:1025100081FFF24440300F12FF180923EAAABFAA34
:10252000EA033F0B012DBC808080080115240E0CAE
:10253000082A01013149041D81808081021901B9F5
:102540001706110101090C0E0A14C0012178081E9A
:1025500021404050215E08012A4DFFFFC1C10409FE
:10256000232D101680FCF3EFF3FC80FF80EEEEEEDF
:10257000F5FBFF9CBEB6B688FF120812042A02B60D
:0C25800019061A040E619A0A04410000BA
:0400000508000131BD
:00000001FF
